{
  "_format": "hh-sol-artifact-1",
  "contractName": "Coprocessor",
  "sourceName": "contracts/coprocessor.sol",
  "abi": [
    {
      "inputs": [
        {
          "internalType": "address",
          "name": "_coprocessor",
          "type": "address"
        }
      ],
      "stateMutability": "nonpayable",
      "type": "constructor"
    },
    {
      "anonymous": false,
      "inputs": [
        {
          "indexed": false,
          "internalType": "uint256",
          "name": "job_id",
          "type": "uint256"
        }
      ],
      "name": "NewJob",
      "type": "event"
    },
    {
      "inputs": [
        {
          "internalType": "string",
          "name": "_result",
          "type": "string"
        }
      ],
      "name": "callback",
      "outputs": [],
      "stateMutability": "nonpayable",
      "type": "function"
    },
    {
      "inputs": [],
      "name": "coprocessor",
      "outputs": [
        {
          "internalType": "address",
          "name": "",
          "type": "address"
        }
      ],
      "stateMutability": "view",
      "type": "function"
    },
    {
      "inputs": [
        {
          "internalType": "uint256",
          "name": "_job_id",
          "type": "uint256"
        }
      ],
      "name": "getResult",
      "outputs": [
        {
          "internalType": "string",
          "name": "",
          "type": "string"
        }
      ],
      "stateMutability": "view",
      "type": "function"
    },
    {
      "inputs": [
        {
          "internalType": "uint256",
          "name": "",
          "type": "uint256"
        }
      ],
      "name": "jobs",
      "outputs": [
        {
          "internalType": "string",
          "name": "",
          "type": "string"
        }
      ],
      "stateMutability": "view",
      "type": "function"
    },
    {
      "inputs": [],
      "name": "newJob",
      "outputs": [],
      "stateMutability": "payable",
      "type": "function"
    }
  ],
  "bytecode": "0x60806040526000805534801561001457600080fd5b50604051610ceb380380610ceb833981810160405281019061003691906100e0565b80600160006101000a81548173ffffffffffffffffffffffffffffffffffffffff021916908373ffffffffffffffffffffffffffffffffffffffff1602179055505061010d565b600080fd5b600073ffffffffffffffffffffffffffffffffffffffff82169050919050565b60006100ad82610082565b9050919050565b6100bd816100a2565b81146100c857600080fd5b50565b6000815190506100da816100b4565b92915050565b6000602082840312156100f6576100f561007d565b5b6000610104848285016100cb565b91505092915050565b610bcf8061011c6000396000f3fe60806040526004361061004a5760003560e01c8063180aedf31461004f5780632a0c422d1461008c5780637382084a14610096578063995e4339146100c1578063cac95320146100fe575b600080fd5b34801561005b57600080fd5b50610076600480360381019061007191906104b1565b610127565b604051610083919061056e565b60405180910390f35b6100946101c7565b005b3480156100a257600080fd5b506100ab6102ee565b6040516100b891906105d1565b60405180910390f35b3480156100cd57600080fd5b506100e860048036038101906100e391906104b1565b610314565b6040516100f5919061056e565b60405180910390f35b34801561010a57600080fd5b5061012560048036038101906101209190610651565b6103b9565b005b60026020528060005260406000206000915090508054610146906106cd565b80601f0160208091040260200160405190810160405280929190818152602001828054610172906106cd565b80156101bf5780601f10610194576101008083540402835291602001916101bf565b820191906000526020600020905b8154815290600101906020018083116101a257829003601f168201915b505050505081565b6000808154809291906101d99061072d565b919050555060004790506000600160009054906101000a900473ffffffffffffffffffffffffffffffffffffffff1673ffffffffffffffffffffffffffffffffffffffff168260405161022b906107a6565b60006040518083038185875af1925050503d8060008114610268576040519150601f19603f3d011682016040523d82523d6000602084013e61026d565b606091505b50509050806102b1576040517f08c379a00000000000000000000000000000000000000000000000000000000081526004016102a890610807565b60405180910390fd5b7f031ada964b8e520743eb9508d0ace62654b126430b7e5a92b42e78eebb61602e6000546040516102e29190610836565b60405180910390a15050565b600160009054906101000a900473ffffffffffffffffffffffffffffffffffffffff1681565b6060600260008381526020019081526020016000208054610334906106cd565b80601f0160208091040260200160405190810160405280929190818152602001828054610360906106cd565b80156103ad5780601f10610382576101008083540402835291602001916103ad565b820191906000526020600020905b81548152906001019060200180831161039057829003601f168201915b50505050509050919050565b600160009054906101000a900473ffffffffffffffffffffffffffffffffffffffff1673ffffffffffffffffffffffffffffffffffffffff163373ffffffffffffffffffffffffffffffffffffffff1614610449576040517f08c379a0000000000000000000000000000000000000000000000000000000008152600401610440906108c3565b60405180910390fd5b81816002600080548152602001908152602001600020918261046c929190610ac9565b505050565b600080fd5b600080fd5b6000819050919050565b61048e8161047b565b811461049957600080fd5b50565b6000813590506104ab81610485565b92915050565b6000602082840312156104c7576104c6610471565b5b60006104d58482850161049c565b91505092915050565b600081519050919050565b600082825260208201905092915050565b60005b838110156105185780820151818401526020810190506104fd565b60008484015250505050565b6000601f19601f8301169050919050565b6000610540826104de565b61054a81856104e9565b935061055a8185602086016104fa565b61056381610524565b840191505092915050565b600060208201905081810360008301526105888184610535565b905092915050565b600073ffffffffffffffffffffffffffffffffffffffff82169050919050565b60006105bb82610590565b9050919050565b6105cb816105b0565b82525050565b60006020820190506105e660008301846105c2565b92915050565b600080fd5b600080fd5b600080fd5b60008083601f840112610611576106106105ec565b5b8235905067ffffffffffffffff81111561062e5761062d6105f1565b5b60208301915083600182028301111561064a576106496105f6565b5b9250929050565b6000806020838503121561066857610667610471565b5b600083013567ffffffffffffffff81111561068657610685610476565b5b610692858286016105fb565b92509250509250929050565b7f4e487b7100000000000000000000000000000000000000000000000000000000600052602260045260246000fd5b600060028204905060018216806106e557607f821691505b6020821081036106f8576106f761069e565b5b50919050565b7f4e487b7100000000000000000000000000000000000000000000000000000000600052601160045260246000fd5b60006107388261047b565b91507fffffffffffffffffffffffffffffffffffffffffffffffffffffffffffffffff820361076a576107696106fe565b5b600182019050919050565b600081905092915050565b50565b6000610790600083610775565b915061079b82610780565b600082019050919050565b60006107b182610783565b9150819050919050565b7f4661696c656420746f2073656e64204574686572000000000000000000000000600082015250565b60006107f16014836104e9565b91506107fc826107bb565b602082019050919050565b60006020820190508181036000830152610820816107e4565b9050919050565b6108308161047b565b82525050565b600060208201905061084b6000830184610827565b92915050565b7f4f6e6c792074686520636f70726f636573736f722063616e2063616c6c20746860008201527f69732066756e6374696f6e000000000000000000000000000000000000000000602082015250565b60006108ad602b836104e9565b91506108b882610851565b604082019050919050565b600060208201905081810360008301526108dc816108a0565b9050919050565b600082905092915050565b7f4e487b7100000000000000000000000000000000000000000000000000000000600052604160045260246000fd5b60008190508160005260206000209050919050565b60006020601f8301049050919050565b600082821b905092915050565b60006008830261097f7fffffffffffffffffffffffffffffffffffffffffffffffffffffffffffffffff82610942565b6109898683610942565b95508019841693508086168417925050509392505050565b6000819050919050565b60006109c66109c16109bc8461047b565b6109a1565b61047b565b9050919050565b6000819050919050565b6109e0836109ab565b6109f46109ec826109cd565b84845461094f565b825550505050565b600090565b610a096109fc565b610a148184846109d7565b505050565b5b81811015610a3857610a2d600082610a01565b600181019050610a1a565b5050565b601f821115610a7d57610a4e8161091d565b610a5784610932565b81016020851015610a66578190505b610a7a610a7285610932565b830182610a19565b50505b505050565b600082821c905092915050565b6000610aa060001984600802610a82565b1980831691505092915050565b6000610ab98383610a8f565b9150826002028217905092915050565b610ad383836108e3565b67ffffffffffffffff811115610aec57610aeb6108ee565b5b610af682546106cd565b610b01828285610a3c565b6000601f831160018114610b305760008415610b1e578287013590505b610b288582610aad565b865550610b90565b601f198416610b3e8661091d565b60005b82811015610b6657848901358255600182019150602085019450602081019050610b41565b86831015610b835784890135610b7f601f891682610a8f565b8355505b6001600288020188555050505b5050505050505056fea264697066735822122033078c91f21a0615c7b0819a38b16641859ebde1c2af8f3f0805256ec5c3ff4264736f6c63430008180033",
  "linkReferences": {},
  "deployedLinkReferences": {}
}